{
  "_format": "hh-sol-artifact-1",
  "contractName": "MessageCreator",
  "sourceName": "contracts/MessageCreator.sol",
  "abi": [
    {
      "inputs": [
        {
          "internalType": "string",
          "name": "message_",
          "type": "string"
        }
      ],
      "name": "addPaper",
      "outputs": [],
      "stateMutability": "nonpayable",
      "type": "function"
    },
    {
      "inputs": [],
      "name": "messages",
      "outputs": [
        {
          "components": [
            {
              "internalType": "string",
              "name": "message",
              "type": "string"
            },
            {
              "internalType": "address",
              "name": "owner",
              "type": "address"
            }
          ],
          "internalType": "struct MessageCreator.Message[]",
          "name": "",
          "type": "tuple[]"
        }
      ],
      "stateMutability": "view",
      "type": "function"
    }
  ],
  "bytecode": "0x608060405234801561001057600080fd5b506106f8806100206000396000f3fe608060405234801561001057600080fd5b50600436106100365760003560e01c80634d98f7db1461003b578063d36f147f14610057575b600080fd5b61005560048036038101906100509190610386565b610075565b005b61005f610134565b60405161006c91906104d5565b60405180910390f35b600060405180604001604052808381526020013373ffffffffffffffffffffffffffffffffffffffff16815250908060018154018082558091505060019003906000526020600020906002020160009091909190915060008201518160000190805190602001906100e792919061027b565b5060208201518160010160006101000a81548173ffffffffffffffffffffffffffffffffffffffff021916908373ffffffffffffffffffffffffffffffffffffffff160217905550505050565b60606000805480602002602001604051908101604052809291908181526020016000905b82821015610272578382906000526020600020906002020160405180604001604052908160008201805461018b90610621565b80601f01602080910402602001604051908101604052809291908181526020018280546101b790610621565b80156102045780601f106101d957610100808354040283529160200191610204565b820191906000526020600020905b8154815290600101906020018083116101e757829003601f168201915b505050505081526020016001820160009054906101000a900473ffffffffffffffffffffffffffffffffffffffff1673ffffffffffffffffffffffffffffffffffffffff1673ffffffffffffffffffffffffffffffffffffffff168152505081526020019060010190610158565b50505050905090565b82805461028790610621565b90600052602060002090601f0160209004810192826102a957600085556102f0565b82601f106102c257805160ff19168380011785556102f0565b828001600101855582156102f0579182015b828111156102ef5782518255916020019190600101906102d4565b5b5090506102fd9190610301565b5090565b5b8082111561031a576000816000905550600101610302565b5090565b600061033161032c84610528565b6104f7565b90508281526020810184848401111561034957600080fd5b6103548482856105df565b509392505050565b600082601f83011261036d57600080fd5b813561037d84826020860161031e565b91505092915050565b60006020828403121561039857600080fd5b600082013567ffffffffffffffff8111156103b257600080fd5b6103be8482850161035c565b91505092915050565b60006103d38383610498565b905092915050565b6103e4816105ad565b82525050565b60006103f582610568565b6103ff818561058b565b93508360208202850161041185610558565b8060005b8581101561044d578484038952815161042e85826103c7565b94506104398361057e565b925060208a01995050600181019050610415565b50829750879550505050505092915050565b600061046a82610573565b610474818561059c565b93506104848185602086016105ee565b61048d816106b1565b840191505092915050565b600060408301600083015184820360008601526104b5828261045f565b91505060208301516104ca60208601826103db565b508091505092915050565b600060208201905081810360008301526104ef81846103ea565b905092915050565b6000604051905081810181811067ffffffffffffffff8211171561051e5761051d610682565b5b8060405250919050565b600067ffffffffffffffff82111561054357610542610682565b5b601f19601f8301169050602081019050919050565b6000819050602082019050919050565b600081519050919050565b600081519050919050565b6000602082019050919050565b600082825260208201905092915050565b600082825260208201905092915050565b60006105b8826105bf565b9050919050565b600073ffffffffffffffffffffffffffffffffffffffff82169050919050565b82818337600083830152505050565b60005b8381101561060c5780820151818401526020810190506105f1565b8381111561061b576000848401525b50505050565b6000600282049050600182168061063957607f821691505b6020821081141561064d5761064c610653565b5b50919050565b7f4e487b7100000000000000000000000000000000000000000000000000000000600052602260045260246000fd5b7f4e487b7100000000000000000000000000000000000000000000000000000000600052604160045260246000fd5b6000601f19601f830116905091905056fea2646970667358221220380e0c74fbea1594b0ec801bc5483fb305d7d97a64a9e9a9c00f3e7de54b956f64736f6c63430008000033",
  "linkReferences": {},
  "deployedLinkReferences": {}
}